{
  "_format": "hh-sol-artifact-1",
  "contractName": "Bundler",
  "sourceName": "contracts/Bundler.sol",
  "abi": [
    {
      "inputs": [],
      "stateMutability": "nonpayable",
      "type": "constructor"
    },
    {
      "inputs": [],
      "name": "AccessControlBadConfirmation",
      "type": "error"
    },
    {
      "inputs": [
        {
          "internalType": "address",
          "name": "account",
          "type": "address"
        },
        {
          "internalType": "bytes32",
          "name": "neededRole",
          "type": "bytes32"
        }
      ],
      "name": "AccessControlUnauthorizedAccount",
      "type": "error"
    },
    {
      "inputs": [],
      "name": "ECDSAInvalidSignature",
      "type": "error"
    },
    {
      "inputs": [
        {
          "internalType": "uint256",
          "name": "length",
          "type": "uint256"
        }
      ],
      "name": "ECDSAInvalidSignatureLength",
      "type": "error"
    },
    {
      "inputs": [
        {
          "internalType": "bytes32",
          "name": "s",
          "type": "bytes32"
        }
      ],
      "name": "ECDSAInvalidSignatureS",
      "type": "error"
    },
    {
      "inputs": [],
      "name": "ERC1167FailedCreateClone",
      "type": "error"
    },
    {
      "inputs": [
        {
          "internalType": "address",
          "name": "account",
          "type": "address"
        },
        {
          "internalType": "uint256",
          "name": "currentNonce",
          "type": "uint256"
        }
      ],
      "name": "InvalidAccountNonce",
      "type": "error"
    },
    {
      "inputs": [],
      "name": "InvalidInitialization",
      "type": "error"
    },
    {
      "inputs": [],
      "name": "NotInitializing",
      "type": "error"
    },
    {
      "inputs": [
        {
          "internalType": "address",
          "name": "owner",
          "type": "address"
        }
      ],
      "name": "OwnableInvalidOwner",
      "type": "error"
    },
    {
      "inputs": [
        {
          "internalType": "address",
          "name": "account",
          "type": "address"
        }
      ],
      "name": "OwnableUnauthorizedAccount",
      "type": "error"
    },
    {
      "inputs": [],
      "name": "ReentrancyGuardReentrantCall",
      "type": "error"
    },
    {
      "anonymous": false,
      "inputs": [],
      "name": "EIP712DomainChanged",
      "type": "event"
    },
    {
      "anonymous": false,
      "inputs": [
        {
          "indexed": false,
          "internalType": "uint64",
          "name": "version",
          "type": "uint64"
        }
      ],
      "name": "Initialized",
      "type": "event"
    },
    {
      "anonymous": false,
      "inputs": [
        {
          "indexed": true,
          "internalType": "address",
          "name": "previousOwner",
          "type": "address"
        },
        {
          "indexed": true,
          "internalType": "address",
          "name": "newOwner",
          "type": "address"
        }
      ],
      "name": "OwnershipTransferred",
      "type": "event"
    },
    {
      "anonymous": false,
      "inputs": [
        {
          "indexed": true,
          "internalType": "bytes32",
          "name": "role",
          "type": "bytes32"
        },
        {
          "indexed": true,
          "internalType": "bytes32",
          "name": "previousAdminRole",
          "type": "bytes32"
        },
        {
          "indexed": true,
          "internalType": "bytes32",
          "name": "newAdminRole",
          "type": "bytes32"
        }
      ],
      "name": "RoleAdminChanged",
      "type": "event"
    },
    {
      "anonymous": false,
      "inputs": [
        {
          "indexed": true,
          "internalType": "bytes32",
          "name": "role",
          "type": "bytes32"
        },
        {
          "indexed": true,
          "internalType": "address",
          "name": "account",
          "type": "address"
        },
        {
          "indexed": true,
          "internalType": "address",
          "name": "sender",
          "type": "address"
        }
      ],
      "name": "RoleGranted",
      "type": "event"
    },
    {
      "anonymous": false,
      "inputs": [
        {
          "indexed": true,
          "internalType": "bytes32",
          "name": "role",
          "type": "bytes32"
        },
        {
          "indexed": true,
          "internalType": "address",
          "name": "account",
          "type": "address"
        },
        {
          "indexed": true,
          "internalType": "address",
          "name": "sender",
          "type": "address"
        }
      ],
      "name": "RoleRevoked",
      "type": "event"
    },
    {
      "inputs": [],
      "name": "DEFAULT_ADMIN_ROLE",
      "outputs": [
        {
          "internalType": "bytes32",
          "name": "",
          "type": "bytes32"
        }
      ],
      "stateMutability": "view",
      "type": "function"
    },
    {
      "inputs": [],
      "name": "SEQUENCER_ROLE",
      "outputs": [
        {
          "internalType": "bytes32",
          "name": "",
          "type": "bytes32"
        }
      ],
      "stateMutability": "view",
      "type": "function"
    },
    {
      "inputs": [
        {
          "internalType": "address",
          "name": "_address",
          "type": "address"
        }
      ],
      "name": "addSequencer",
      "outputs": [],
      "stateMutability": "nonpayable",
      "type": "function"
    },
    {
      "inputs": [
        {
          "internalType": "address",
          "name": "",
          "type": "address"
        }
      ],
      "name": "balances",
      "outputs": [
        {
          "internalType": "uint256",
          "name": "",
          "type": "uint256"
        }
      ],
      "stateMutability": "view",
      "type": "function"
    },
    {
      "inputs": [
        {
          "internalType": "string",
          "name": "_tokenName",
          "type": "string"
        },
        {
          "internalType": "string",
          "name": "_symbol",
          "type": "string"
        }
      ],
      "name": "createRTokens",
      "outputs": [],
      "stateMutability": "nonpayable",
      "type": "function"
    },
    {
      "inputs": [],
      "name": "deposit",
      "outputs": [],
      "stateMutability": "payable",
      "type": "function"
    },
    {
      "inputs": [],
      "name": "eip712Domain",
      "outputs": [
        {
          "internalType": "bytes1",
          "name": "fields",
          "type": "bytes1"
        },
        {
          "internalType": "string",
          "name": "name",
          "type": "string"
        },
        {
          "internalType": "string",
          "name": "version",
          "type": "string"
        },
        {
          "internalType": "uint256",
          "name": "chainId",
          "type": "uint256"
        },
        {
          "internalType": "address",
          "name": "verifyingContract",
          "type": "address"
        },
        {
          "internalType": "bytes32",
          "name": "salt",
          "type": "bytes32"
        },
        {
          "internalType": "uint256[]",
          "name": "extensions",
          "type": "uint256[]"
        }
      ],
      "stateMutability": "view",
      "type": "function"
    },
    {
      "inputs": [
        {
          "components": [
            {
              "internalType": "address",
              "name": "from",
              "type": "address"
            },
            {
              "internalType": "address",
              "name": "to",
              "type": "address"
            },
            {
              "internalType": "uint256",
              "name": "value",
              "type": "uint256"
            },
            {
              "internalType": "bytes",
              "name": "data",
              "type": "bytes"
            },
            {
              "internalType": "uint256",
              "name": "gasPrice",
              "type": "uint256"
            },
            {
              "internalType": "uint256",
              "name": "gasLimit",
              "type": "uint256"
            },
            {
              "internalType": "bytes",
              "name": "txSig",
              "type": "bytes"
            },
            {
              "internalType": "bytes32[]",
              "name": "bundle_tx_merkle_path",
              "type": "bytes32[]"
            },
            {
              "internalType": "bytes32",
              "name": "bundle_tx_root",
              "type": "bytes32"
            },
            {
              "internalType": "bytes",
              "name": "bundle_tx_signature",
              "type": "bytes"
            },
            {
              "internalType": "bool",
              "name": "revert_flag",
              "type": "bool"
            }
          ],
          "internalType": "struct IBundler.UserTx",
          "name": "_tx",
          "type": "tuple"
        }
      ],
      "name": "execute",
      "outputs": [],
      "stateMutability": "nonpayable",
      "type": "function"
    },
    {
      "inputs": [
        {
          "internalType": "bytes32",
          "name": "role",
          "type": "bytes32"
        }
      ],
      "name": "getRoleAdmin",
      "outputs": [
        {
          "internalType": "bytes32",
          "name": "",
          "type": "bytes32"
        }
      ],
      "stateMutability": "view",
      "type": "function"
    },
    {
      "inputs": [
        {
          "internalType": "bytes32",
          "name": "role",
          "type": "bytes32"
        },
        {
          "internalType": "address",
          "name": "account",
          "type": "address"
        }
      ],
      "name": "grantRole",
      "outputs": [],
      "stateMutability": "nonpayable",
      "type": "function"
    },
    {
      "inputs": [
        {
          "internalType": "bytes32",
          "name": "role",
          "type": "bytes32"
        },
        {
          "internalType": "address",
          "name": "account",
          "type": "address"
        }
      ],
      "name": "hasRole",
      "outputs": [
        {
          "internalType": "bool",
          "name": "",
          "type": "bool"
        }
      ],
      "stateMutability": "view",
      "type": "function"
    },
    {
      "inputs": [
        {
          "internalType": "address",
          "name": "_rTokenImplementation",
          "type": "address"
        }
      ],
      "name": "initialize",
      "outputs": [],
      "stateMutability": "nonpayable",
      "type": "function"
    },
    {
      "inputs": [
        {
          "internalType": "address",
          "name": "owner",
          "type": "address"
        }
      ],
      "name": "nonces",
      "outputs": [
        {
          "internalType": "uint256",
          "name": "",
          "type": "uint256"
        }
      ],
      "stateMutability": "view",
      "type": "function"
    },
    {
      "inputs": [],
      "name": "owner",
      "outputs": [
        {
          "internalType": "address",
          "name": "",
          "type": "address"
        }
      ],
      "stateMutability": "view",
      "type": "function"
    },
    {
      "inputs": [],
      "name": "rTokenImplementation",
      "outputs": [
        {
          "internalType": "address",
          "name": "",
          "type": "address"
        }
      ],
      "stateMutability": "view",
      "type": "function"
    },
    {
      "inputs": [
        {
          "internalType": "string",
          "name": "",
          "type": "string"
        }
      ],
      "name": "rTokens",
      "outputs": [
        {
          "internalType": "address",
          "name": "",
          "type": "address"
        }
      ],
      "stateMutability": "view",
      "type": "function"
    },
    {
      "inputs": [],
      "name": "renounceOwnership",
      "outputs": [],
      "stateMutability": "nonpayable",
      "type": "function"
    },
    {
      "inputs": [
        {
          "internalType": "bytes32",
          "name": "role",
          "type": "bytes32"
        },
        {
          "internalType": "address",
          "name": "callerConfirmation",
          "type": "address"
        }
      ],
      "name": "renounceRole",
      "outputs": [],
      "stateMutability": "nonpayable",
      "type": "function"
    },
    {
      "inputs": [
        {
          "internalType": "bytes32",
          "name": "role",
          "type": "bytes32"
        },
        {
          "internalType": "address",
          "name": "account",
          "type": "address"
        }
      ],
      "name": "revokeRole",
      "outputs": [],
      "stateMutability": "nonpayable",
      "type": "function"
    },
    {
      "inputs": [
        {
          "internalType": "bytes4",
          "name": "interfaceId",
          "type": "bytes4"
        }
      ],
      "name": "supportsInterface",
      "outputs": [
        {
          "internalType": "bool",
          "name": "",
          "type": "bool"
        }
      ],
      "stateMutability": "view",
      "type": "function"
    },
    {
      "inputs": [
        {
          "internalType": "address",
          "name": "newOwner",
          "type": "address"
        }
      ],
      "name": "transferOwnership",
      "outputs": [],
      "stateMutability": "nonpayable",
      "type": "function"
    },
    {
      "inputs": [
        {
          "internalType": "uint256",
          "name": "_amount",
          "type": "uint256"
        }
      ],
      "name": "withdraw",
      "outputs": [],
      "stateMutability": "nonpayable",
      "type": "function"
    }
  ],
  "bytecode": "0x60806040523480156200001157600080fd5b50620000226200002860201b60201c565b6200019c565b60006200003a6200013260201b60201c565b90508060000160089054906101000a900460ff161562000086576040517ff92ee8a900000000000000000000000000000000000000000000000000000000815260040160405180910390fd5b67ffffffffffffffff80168160000160009054906101000a900467ffffffffffffffff1667ffffffffffffffff16146200012f5767ffffffffffffffff8160000160006101000a81548167ffffffffffffffff021916908367ffffffffffffffff1602179055507fc7f505b2f371ae2175ee4913f4499e1f2633a7b5936321eed1cdaeb6115181d267ffffffffffffffff6040516200012691906200017f565b60405180910390a15b50565b60007ff0c57e16840df040f15088dc2f81fe391c3923bec73e23a9662efc9c229c6a00905090565b600067ffffffffffffffff82169050919050565b62000179816200015a565b82525050565b60006020820190506200019660008301846200016e565b92915050565b6139e980620001ac6000396000f3fe6080604052600436106101355760003560e01c80638a336231116100ab578063b21b397d1161006f578063b21b397d1461043e578063b573a26714610467578063c4d66de814610492578063d0e30db0146104bb578063d547741f146104c5578063f2fde38b146104ee57610135565b80638a336231146103455780638da5cb5b1461036e5780639195f9ae1461039957806391d14854146103d6578063a217fddf1461041357610135565b80632f2ff15d116100fd5780632f2ff15d1461024357806336568abe1461026c5780634842855c14610295578063715018a6146102c05780637ecebe00146102d757806384b0196e1461031457610135565b806301ffc9a71461013a578063248a9ca31461017757806324ae56b1146101b457806327e235e3146101dd5780632e1a7d4d1461021a575b600080fd5b34801561014657600080fd5b50610161600480360381019061015c919061245c565b610517565b60405161016e91906124a4565b60405180910390f35b34801561018357600080fd5b5061019e600480360381019061019991906124f5565b610591565b6040516101ab9190612531565b60405180910390f35b3480156101c057600080fd5b506101db60048036038101906101d69190612692565b6105bf565b005b3480156101e957600080fd5b5061020460048036038101906101ff9190612768565b610793565b60405161021191906127ae565b60405180910390f35b34801561022657600080fd5b50610241600480360381019061023c91906127f5565b6107ab565b005b34801561024f57600080fd5b5061026a60048036038101906102659190612822565b6108dd565b005b34801561027857600080fd5b50610293600480360381019061028e9190612822565b6108ff565b005b3480156102a157600080fd5b506102aa61097a565b6040516102b79190612531565b60405180910390f35b3480156102cc57600080fd5b506102d561099e565b005b3480156102e357600080fd5b506102fe60048036038101906102f99190612768565b6109b2565b60405161030b91906127ae565b60405180910390f35b34801561032057600080fd5b50610329610a09565b60405161033c97969594939291906129e9565b60405180910390f35b34801561035157600080fd5b5061036c60048036038101906103679190612768565b610b1b565b005b34801561037a57600080fd5b50610383610b51565b6040516103909190612a6d565b60405180910390f35b3480156103a557600080fd5b506103c060048036038101906103bb9190612a88565b610b89565b6040516103cd9190612a6d565b60405180910390f35b3480156103e257600080fd5b506103fd60048036038101906103f89190612822565b610bd2565b60405161040a91906124a4565b60405180910390f35b34801561041f57600080fd5b50610428610c4b565b6040516104359190612531565b60405180910390f35b34801561044a57600080fd5b5061046560048036038101906104609190612dec565b610c52565b005b34801561047357600080fd5b5061047c611145565b6040516104899190612a6d565b60405180910390f35b34801561049e57600080fd5b506104b960048036038101906104b49190612768565b611169565b005b6104c36113bc565b005b3480156104d157600080fd5b506104ec60048036038101906104e79190612822565b611467565b005b3480156104fa57600080fd5b5061051560048036038101906105109190612768565b611489565b005b60007f7965db0b000000000000000000000000000000000000000000000000000000007bffffffffffffffffffffffffffffffffffffffffffffffffffffffff1916827bffffffffffffffffffffffffffffffffffffffffffffffffffffffff1916148061058a57506105898261150f565b5b9050919050565b60008061059c611579565b905080600001600084815260200190815260200160002060010154915050919050565b7fac4f1890dc96c9a02330d1fa696648a38f3b282d2449c2d8e6f10507488c84c86105e9816115a1565b600061061460008054906101000a900473ffffffffffffffffffffffffffffffffffffffff166115b5565b90508073ffffffffffffffffffffffffffffffffffffffff16634cd88b7685856040518363ffffffff1660e01b8152600401610651929190612e35565b600060405180830381600087803b15801561066b57600080fd5b505af115801561067f573d6000803e3d6000fd5b50505050600073ffffffffffffffffffffffffffffffffffffffff166001856040516106ab9190612ea8565b908152602001604051809103902060009054906101000a900473ffffffffffffffffffffffffffffffffffffffff1673ffffffffffffffffffffffffffffffffffffffff1614610730576040517f08c379a000000000000000000000000000000000000000000000000000000000815260040161072790612f0b565b60405180910390fd5b806001856040516107419190612ea8565b908152602001604051809103902060006101000a81548173ffffffffffffffffffffffffffffffffffffffff021916908373ffffffffffffffffffffffffffffffffffffffff16021790555050505050565b60026020528060005260406000206000915090505481565b6107b3611666565b80600260003373ffffffffffffffffffffffffffffffffffffffff1673ffffffffffffffffffffffffffffffffffffffff168152602001908152602001600020541015610835576040517f08c379a000000000000000000000000000000000000000000000000000000000815260040161082c90612f77565b60405180910390fd5b80600260003373ffffffffffffffffffffffffffffffffffffffff1673ffffffffffffffffffffffffffffffffffffffff16815260200190815260200160002060008282546108849190612fc6565b925050819055503373ffffffffffffffffffffffffffffffffffffffff166108fc829081150290604051600060405180830381858888f193505050501580156108d1573d6000803e3d6000fd5b506108da6116bd565b50565b6108e682610591565b6108ef816115a1565b6108f983836116d6565b50505050565b6109076117d7565b73ffffffffffffffffffffffffffffffffffffffff168173ffffffffffffffffffffffffffffffffffffffff161461096b576040517f6697b23200000000000000000000000000000000000000000000000000000000815260040160405180910390fd5b61097582826117df565b505050565b7fac4f1890dc96c9a02330d1fa696648a38f3b282d2449c2d8e6f10507488c84c881565b6109a66118e1565b6109b06000611968565b565b6000806109bd611a3f565b90508060000160008473ffffffffffffffffffffffffffffffffffffffff1673ffffffffffffffffffffffffffffffffffffffff16815260200190815260200160002054915050919050565b6000606080600080600060606000610a1f611a67565b90506000801b8160000154148015610a3d57506000801b8160010154145b610a7c576040517f08c379a0000000000000000000000000000000000000000000000000000000008152600401610a7390613046565b60405180910390fd5b610a84611a8f565b610a8c611b30565b46306000801b600067ffffffffffffffff811115610aad57610aac612567565b5b604051908082528060200260200182016040528015610adb5781602001602082028036833780820191505090505b507f0f0000000000000000000000000000000000000000000000000000000000000095949392919097509750975097509750975097505090919293949596565b610b236118e1565b610b4d7fac4f1890dc96c9a02330d1fa696648a38f3b282d2449c2d8e6f10507488c84c8826116d6565b5050565b600080610b5c611bd1565b90508060000160009054906101000a900473ffffffffffffffffffffffffffffffffffffffff1691505090565b6001818051602081018201805184825260208301602085012081835280955050505050506000915054906101000a900473ffffffffffffffffffffffffffffffffffffffff1681565b600080610bdd611579565b905080600001600085815260200190815260200160002060000160008473ffffffffffffffffffffffffffffffffffffffff1673ffffffffffffffffffffffffffffffffffffffff16815260200190815260200160002060009054906101000a900460ff1691505092915050565b6000801b81565b610c5a611666565b7fac4f1890dc96c9a02330d1fa696648a38f3b282d2449c2d8e6f10507488c84c8610c84816115a1565b6000610c938360000151611bf9565b905060007fcde75640759a51df763ed722de377e5ec99df1f1794b246b67c46e301983c67d8460200151856040015186606001518051906020012085604051602001610ce3959493929190613066565b6040516020818303038152906040528051906020012090506000610d0682611c5e565b90506000610d18828760c00151611c78565b90508073ffffffffffffffffffffffffffffffffffffffff16866000015173ffffffffffffffffffffffffffffffffffffffff1614610d8c576040517f08c379a0000000000000000000000000000000000000000000000000000000008152600401610d8390613105565b60405180910390fd5b60008660600151610d9c90613162565b905060001515876101400151151514610dea576040517f08c379a0000000000000000000000000000000000000000000000000000000008152600401610de190613215565b60405180910390fd5b7f40c10f19c047ae7dfa66d6312b683d2ea3dfbcb4159e96b967c5f4b0a86f28427bffffffffffffffffffffffffffffffffffffffffffffffffffffffff1916817bffffffffffffffffffffffffffffffffffffffffffffffffffffffff19161480610eb357507f79cc679044ee9a2021f0a26c0fdec02ac39179cd005bb971a471b7f9f17c576c7bffffffffffffffffffffffffffffffffffffffffffffffffffffffff1916817bffffffffffffffffffffffffffffffffffffffffffffffffffffffff1916145b610ef2576040517f08c379a0000000000000000000000000000000000000000000000000000000008152600401610ee990613281565b60405180910390fd5b600084604051602001610f059190612531565b60405160208183030381529060405280519060200120604051602001610f2b91906132c2565b604051602081830303815290604052805190602001209050610f578860e0015189610100015183611ca4565b610f96576040517f08c379a0000000000000000000000000000000000000000000000000000000008152600401610f8d90613329565b60405180910390fd5b60007f6096d9e2168759dc7f643c823bc695962c5627856035f51c06acc535a867ada5896101000151604051602001610fd0929190613349565b6040516020818303038152906040528051906020012090506000610ff382611c5e565b90506000611006828c6101200151611c78565b90508073ffffffffffffffffffffffffffffffffffffffff168b6000015173ffffffffffffffffffffffffffffffffffffffff161461107a576040517f08c379a0000000000000000000000000000000000000000000000000000000008152600401611071906133be565b60405180910390fd5b60008b6020015173ffffffffffffffffffffffffffffffffffffffff168c606001516040516110a9919061341a565b6000604051808303816000865af19150503d80600081146110e6576040519150601f19603f3d011682016040523d82523d6000602084013e6110eb565b606091505b505090508061112f576040517f08c379a00000000000000000000000000000000000000000000000000000000081526004016111269061347d565b60405180910390fd5b50505050505050505050506111426116bd565b50565b60008054906101000a900473ffffffffffffffffffffffffffffffffffffffff1681565b6000611173611cbb565b905060008160000160089054906101000a900460ff1615905060008260000160009054906101000a900467ffffffffffffffff1690506000808267ffffffffffffffff161480156111c15750825b9050600060018367ffffffffffffffff161480156111f6575060003073ffffffffffffffffffffffffffffffffffffffff163b145b905081158015611204575080155b1561123b576040517ff92ee8a900000000000000000000000000000000000000000000000000000000815260040160405180910390fd5b60018560000160006101000a81548167ffffffffffffffff021916908367ffffffffffffffff160217905550831561128b5760018560000160086101000a81548160ff0219169083151502179055505b856000806101000a81548173ffffffffffffffffffffffffffffffffffffffff021916908373ffffffffffffffffffffffffffffffffffffffff1602179055506112d3611ce3565b6112db611ced565b6112e433611cff565b6113586040518060400160405280600781526020017f42756e646c6572000000000000000000000000000000000000000000000000008152506040518060400160405280600181526020017f3100000000000000000000000000000000000000000000000000000000000000815250611d13565b83156113b45760008560000160086101000a81548160ff0219169083151502179055507fc7f505b2f371ae2175ee4913f4499e1f2633a7b5936321eed1cdaeb6115181d260016040516113ab91906134f6565b60405180910390a15b505050505050565b6113c4611666565b60003411611407576040517f08c379a00000000000000000000000000000000000000000000000000000000081526004016113fe9061355d565b60405180910390fd5b34600260003373ffffffffffffffffffffffffffffffffffffffff1673ffffffffffffffffffffffffffffffffffffffff1681526020019081526020016000206000828254611456919061357d565b925050819055506114656116bd565b565b61147082610591565b611479816115a1565b61148383836117df565b50505050565b6114916118e1565b600073ffffffffffffffffffffffffffffffffffffffff168173ffffffffffffffffffffffffffffffffffffffff16036115035760006040517f1e4fbdf70000000000000000000000000000000000000000000000000000000081526004016114fa9190612a6d565b60405180910390fd5b61150c81611968565b50565b60007f01ffc9a7000000000000000000000000000000000000000000000000000000007bffffffffffffffffffffffffffffffffffffffffffffffffffffffff1916827bffffffffffffffffffffffffffffffffffffffffffffffffffffffff1916149050919050565b60007f02dd7bc7dec4dceedda775e58dd541e08a116c6c53815c0bd028192f7b626800905090565b6115b2816115ad6117d7565b611d29565b50565b6000763d602d80600a3d3981f3363d3d373d3d3d363d730000008260601b60e81c176000526e5af43d82803e903d91602b57fd5bf38260781b17602052603760096000f09050600073ffffffffffffffffffffffffffffffffffffffff168173ffffffffffffffffffffffffffffffffffffffff1603611661576040517fc2f868f400000000000000000000000000000000000000000000000000000000815260040160405180910390fd5b919050565b6000611670611d7a565b905060028160000154036116b0576040517f3ee5aeb500000000000000000000000000000000000000000000000000000000815260040160405180910390fd5b6002816000018190555050565b60006116c7611d7a565b90506001816000018190555050565b6000806116e1611579565b90506116ed8484610bd2565b6117cb57600181600001600086815260200190815260200160002060000160008573ffffffffffffffffffffffffffffffffffffffff1673ffffffffffffffffffffffffffffffffffffffff16815260200190815260200160002060006101000a81548160ff0219169083151502179055506117676117d7565b73ffffffffffffffffffffffffffffffffffffffff168373ffffffffffffffffffffffffffffffffffffffff16857f2f8788117e7eff1d82e926ec794901d17c78024a50270940304540a733656f0d60405160405180910390a460019150506117d1565b60009150505b92915050565b600033905090565b6000806117ea611579565b90506117f68484610bd2565b156118d557600081600001600086815260200190815260200160002060000160008573ffffffffffffffffffffffffffffffffffffffff1673ffffffffffffffffffffffffffffffffffffffff16815260200190815260200160002060006101000a81548160ff0219169083151502179055506118716117d7565b73ffffffffffffffffffffffffffffffffffffffff168373ffffffffffffffffffffffffffffffffffffffff16857ff6391f5c32d9c69d2a47ea670b442974b53935d1edc7fd64eb21e047a839171b60405160405180910390a460019150506118db565b60009150505b92915050565b6118e96117d7565b73ffffffffffffffffffffffffffffffffffffffff16611907610b51565b73ffffffffffffffffffffffffffffffffffffffff16146119665761192a6117d7565b6040517f118cdaa700000000000000000000000000000000000000000000000000000000815260040161195d9190612a6d565b60405180910390fd5b565b6000611972611bd1565b905060008160000160009054906101000a900473ffffffffffffffffffffffffffffffffffffffff169050828260000160006101000a81548173ffffffffffffffffffffffffffffffffffffffff021916908373ffffffffffffffffffffffffffffffffffffffff1602179055508273ffffffffffffffffffffffffffffffffffffffff168173ffffffffffffffffffffffffffffffffffffffff167f8be0079c531659141344cd1fd0a4f28419497f9722a3daafe3b4186f6b6457e060405160405180910390a3505050565b60007f5ab42ced628888259c08ac98db1eb0cf702fc1501344311d8b100cd1bfe4bb00905090565b60007fa16a46d94261c7517cc8ff89f61c0ce93598e3c849801011dee649a6a557d100905090565b60606000611a9b611a67565b9050806002018054611aac906135e0565b80601f0160208091040260200160405190810160405280929190818152602001828054611ad8906135e0565b8015611b255780601f10611afa57610100808354040283529160200191611b25565b820191906000526020600020905b815481529060010190602001808311611b0857829003601f168201915b505050505091505090565b60606000611b3c611a67565b9050806003018054611b4d906135e0565b80601f0160208091040260200160405190810160405280929190818152602001828054611b79906135e0565b8015611bc65780601f10611b9b57610100808354040283529160200191611bc6565b820191906000526020600020905b815481529060010190602001808311611ba957829003601f168201915b505050505091505090565b60007f9016d09d72d40fdae2fd8ceac6b6234c7706214fd39c1cd1e609a0528c199300905090565b600080611c04611a3f565b90508060000160008473ffffffffffffffffffffffffffffffffffffffff1673ffffffffffffffffffffffffffffffffffffffff168152602001908152602001600020600081548092919060010191905055915050919050565b6000611c71611c6b611da2565b83611db1565b9050919050565b600080600080611c888686611df2565b925092509250611c988282611e4e565b82935050505092915050565b600082611cb18584611fb2565b1490509392505050565b60007ff0c57e16840df040f15088dc2f81fe391c3923bec73e23a9662efc9c229c6a00905090565b611ceb612002565b565b611cf5612002565b611cfd612042565b565b611d07612002565b611d1081612063565b50565b611d1b612002565b611d2582826120e9565b5050565b611d338282610bd2565b611d765780826040517fe2517d3f000000000000000000000000000000000000000000000000000000008152600401611d6d929190613611565b60405180910390fd5b5050565b60007f9b779b17422d0df92223018b32b4d1fa46e071723d6817e2486d003becc55f00905090565b6000611dac61213e565b905090565b60006040517f190100000000000000000000000000000000000000000000000000000000000081528360028201528260228201526042812091505092915050565b60008060006041845103611e375760008060006020870151925060408701519150606087015160001a9050611e29888285856121a2565b955095509550505050611e47565b60006002855160001b9250925092505b9250925092565b60006003811115611e6257611e6161363a565b5b826003811115611e7557611e7461363a565b5b0315611fae5760016003811115611e8f57611e8e61363a565b5b826003811115611ea257611ea161363a565b5b03611ed9576040517ff645eedf00000000000000000000000000000000000000000000000000000000815260040160405180910390fd5b60026003811115611eed57611eec61363a565b5b826003811115611f0057611eff61363a565b5b03611f45578060001c6040517ffce698f7000000000000000000000000000000000000000000000000000000008152600401611f3c91906127ae565b60405180910390fd5b600380811115611f5857611f5761363a565b5b826003811115611f6b57611f6a61363a565b5b03611fad57806040517fd78bce0c000000000000000000000000000000000000000000000000000000008152600401611fa49190612531565b60405180910390fd5b5b5050565b60008082905060005b8451811015611ff757611fe882868381518110611fdb57611fda613669565b5b6020026020010151612296565b91508080600101915050611fbb565b508091505092915050565b61200a6122c1565b612040576040517fd7e6bcf800000000000000000000000000000000000000000000000000000000815260040160405180910390fd5b565b61204a612002565b6000612054611d7a565b90506001816000018190555050565b61206b612002565b600073ffffffffffffffffffffffffffffffffffffffff168173ffffffffffffffffffffffffffffffffffffffff16036120dd5760006040517f1e4fbdf70000000000000000000000000000000000000000000000000000000081526004016120d49190612a6d565b60405180910390fd5b6120e681611968565b50565b6120f1612002565b60006120fb611a67565b90508281600201908161210e919061382d565b5081816003019081612120919061382d565b506000801b81600001819055506000801b8160010181905550505050565b60007f8b73c3c69bb8fe3d512ecc4cf759cc79239f7b179b0ffacaa9a75d522b39400f6121696122e1565b61217161235d565b46306040516020016121879594939291906138ff565b60405160208183030381529060405280519060200120905090565b60008060007f7fffffffffffffffffffffffffffffff5d576e7357a4501ddfe92f46681b20a08460001c11156121e257600060038592509250925061228c565b600060018888888860405160008152602001604052604051612207949392919061396e565b6020604051602081039080840390855afa158015612229573d6000803e3d6000fd5b505050602060405103519050600073ffffffffffffffffffffffffffffffffffffffff168173ffffffffffffffffffffffffffffffffffffffff160361227d57600060016000801b9350935093505061228c565b8060008060001b935093509350505b9450945094915050565b60008183106122ae576122a982846123d9565b6122b9565b6122b883836123d9565b5b905092915050565b60006122cb611cbb565b60000160089054906101000a900460ff16905090565b6000806122ec611a67565b905060006122f8611a8f565b90506000815111156123155780805190602001209250505061235a565b6000826000015490506000801b81146123335780935050505061235a565b7fc5d2460186f7233c927e7db2dcc703c0e500b653ca82273b7bfad8045d85a47093505050505b90565b600080612368611a67565b90506000612374611b30565b9050600081511115612391578080519060200120925050506123d6565b6000826001015490506000801b81146123af578093505050506123d6565b7fc5d2460186f7233c927e7db2dcc703c0e500b653ca82273b7bfad8045d85a47093505050505b90565b600082600052816020526040600020905092915050565b6000604051905090565b600080fd5b600080fd5b60007fffffffff0000000000000000000000000000000000000000000000000000000082169050919050565b61243981612404565b811461244457600080fd5b50565b60008135905061245681612430565b92915050565b600060208284031215612472576124716123fa565b5b600061248084828501612447565b91505092915050565b60008115159050919050565b61249e81612489565b82525050565b60006020820190506124b96000830184612495565b92915050565b6000819050919050565b6124d2816124bf565b81146124dd57600080fd5b50565b6000813590506124ef816124c9565b92915050565b60006020828403121561250b5761250a6123fa565b5b6000612519848285016124e0565b91505092915050565b61252b816124bf565b82525050565b60006020820190506125466000830184612522565b92915050565b600080fd5b600080fd5b6000601f19601f8301169050919050565b7f4e487b7100000000000000000000000000000000000000000000000000000000600052604160045260246000fd5b61259f82612556565b810181811067ffffffffffffffff821117156125be576125bd612567565b5b80604052505050565b60006125d16123f0565b90506125dd8282612596565b919050565b600067ffffffffffffffff8211156125fd576125fc612567565b5b61260682612556565b9050602081019050919050565b82818337600083830152505050565b6000612635612630846125e2565b6125c7565b90508281526020810184848401111561265157612650612551565b5b61265c848285612613565b509392505050565b600082601f8301126126795761267861254c565b5b8135612689848260208601612622565b91505092915050565b600080604083850312156126a9576126a86123fa565b5b600083013567ffffffffffffffff8111156126c7576126c66123ff565b5b6126d385828601612664565b925050602083013567ffffffffffffffff8111156126f4576126f36123ff565b5b61270085828601612664565b9150509250929050565b600073ffffffffffffffffffffffffffffffffffffffff82169050919050565b60006127358261270a565b9050919050565b6127458161272a565b811461275057600080fd5b50565b6000813590506127628161273c565b92915050565b60006020828403121561277e5761277d6123fa565b5b600061278c84828501612753565b91505092915050565b6000819050919050565b6127a881612795565b82525050565b60006020820190506127c3600083018461279f565b92915050565b6127d281612795565b81146127dd57600080fd5b50565b6000813590506127ef816127c9565b92915050565b60006020828403121561280b5761280a6123fa565b5b6000612819848285016127e0565b91505092915050565b60008060408385031215612839576128386123fa565b5b6000612847858286016124e0565b925050602061285885828601612753565b9150509250929050565b60007fff0000000000000000000000000000000000000000000000000000000000000082169050919050565b61289781612862565b82525050565b600081519050919050565b600082825260208201905092915050565b60005b838110156128d75780820151818401526020810190506128bc565b60008484015250505050565b60006128ee8261289d565b6128f881856128a8565b93506129088185602086016128b9565b61291181612556565b840191505092915050565b6129258161272a565b82525050565b600081519050919050565b600082825260208201905092915050565b6000819050602082019050919050565b61296081612795565b82525050565b60006129728383612957565b60208301905092915050565b6000602082019050919050565b60006129968261292b565b6129a08185612936565b93506129ab83612947565b8060005b838110156129dc5781516129c38882612966565b97506129ce8361297e565b9250506001810190506129af565b5085935050505092915050565b600060e0820190506129fe600083018a61288e565b8181036020830152612a1081896128e3565b90508181036040830152612a2481886128e3565b9050612a33606083018761279f565b612a40608083018661291c565b612a4d60a0830185612522565b81810360c0830152612a5f818461298b565b905098975050505050505050565b6000602082019050612a82600083018461291c565b92915050565b600060208284031215612a9e57612a9d6123fa565b5b600082013567ffffffffffffffff811115612abc57612abb6123ff565b5b612ac884828501612664565b91505092915050565b600080fd5b600080fd5b600067ffffffffffffffff821115612af657612af5612567565b5b612aff82612556565b9050602081019050919050565b6000612b1f612b1a84612adb565b6125c7565b905082815260208101848484011115612b3b57612b3a612551565b5b612b46848285612613565b509392505050565b600082601f830112612b6357612b6261254c565b5b8135612b73848260208601612b0c565b91505092915050565b600067ffffffffffffffff821115612b9757612b96612567565b5b602082029050602081019050919050565b600080fd5b6000612bc0612bbb84612b7c565b6125c7565b90508083825260208201905060208402830185811115612be357612be2612ba8565b5b835b81811015612c0c5780612bf888826124e0565b845260208401935050602081019050612be5565b5050509392505050565b600082601f830112612c2b57612c2a61254c565b5b8135612c3b848260208601612bad565b91505092915050565b612c4d81612489565b8114612c5857600080fd5b50565b600081359050612c6a81612c44565b92915050565b60006101608284031215612c8757612c86612ad1565b5b612c926101606125c7565b90506000612ca284828501612753565b6000830152506020612cb684828501612753565b6020830152506040612cca848285016127e0565b604083015250606082013567ffffffffffffffff811115612cee57612ced612ad6565b5b612cfa84828501612b4e565b6060830152506080612d0e848285016127e0565b60808301525060a0612d22848285016127e0565b60a08301525060c082013567ffffffffffffffff811115612d4657612d45612ad6565b5b612d5284828501612b4e565b60c08301525060e082013567ffffffffffffffff811115612d7657612d75612ad6565b5b612d8284828501612c16565b60e083015250610100612d97848285016124e0565b6101008301525061012082013567ffffffffffffffff811115612dbd57612dbc612ad6565b5b612dc984828501612b4e565b61012083015250610140612ddf84828501612c5b565b6101408301525092915050565b600060208284031215612e0257612e016123fa565b5b600082013567ffffffffffffffff811115612e2057612e1f6123ff565b5b612e2c84828501612c70565b91505092915050565b60006040820190508181036000830152612e4f81856128e3565b90508181036020830152612e6381846128e3565b90509392505050565b600081905092915050565b6000612e828261289d565b612e8c8185612e6c565b9350612e9c8185602086016128b9565b80840191505092915050565b6000612eb48284612e77565b915081905092915050565b7f546f6b656e20616c726561647920657869737473000000000000000000000000600082015250565b6000612ef56014836128a8565b9150612f0082612ebf565b602082019050919050565b60006020820190508181036000830152612f2481612ee8565b9050919050565b7f496e73756666696369656e742062616c616e6365000000000000000000000000600082015250565b6000612f616014836128a8565b9150612f6c82612f2b565b602082019050919050565b60006020820190508181036000830152612f9081612f54565b9050919050565b7f4e487b7100000000000000000000000000000000000000000000000000000000600052601160045260246000fd5b6000612fd182612795565b9150612fdc83612795565b9250828203905081811115612ff457612ff3612f97565b5b92915050565b7f4549503731323a20556e696e697469616c697a65640000000000000000000000600082015250565b60006130306015836128a8565b915061303b82612ffa565b602082019050919050565b6000602082019050818103600083015261305f81613023565b9050919050565b600060a08201905061307b6000830188612522565b613088602083018761291c565b613095604083018661279f565b6130a26060830185612522565b6130af608083018461279f565b9695505050505050565b7f496e76616c6964207369676e6572000000000000000000000000000000000000600082015250565b60006130ef600e836128a8565b91506130fa826130b9565b602082019050919050565b6000602082019050818103600083015261311e816130e2565b9050919050565b600081519050919050565b6000819050602082019050919050565b600061314c8251612404565b80915050919050565b600082821b905092915050565b600061316d82613125565b8261317784613130565b905061318281613140565b925060048210156131c2576131bd7fffffffff0000000000000000000000000000000000000000000000000000000083600403600802613155565b831692505b5050919050565b7f52657665727420666c6167206973207472756500000000000000000000000000600082015250565b60006131ff6013836128a8565b915061320a826131c9565b602082019050919050565b6000602082019050818103600083015261322e816131f2565b9050919050565b7f496e76616c69642066756e6374696f6e207369676e6174757265000000000000600082015250565b600061326b601a836128a8565b915061327682613235565b602082019050919050565b6000602082019050818103600083015261329a8161325e565b9050919050565b6000819050919050565b6132bc6132b7826124bf565b6132a1565b82525050565b60006132ce82846132ab565b60208201915081905092915050565b7f496e76616c6964206d65726b6c652070726f6f66000000000000000000000000600082015250565b60006133136014836128a8565b915061331e826132dd565b602082019050919050565b6000602082019050818103600083015261334281613306565b9050919050565b600060408201905061335e6000830185612522565b61336b6020830184612522565b9392505050565b7f496e76616c6964207369676e657220666f722062756e646c6500000000000000600082015250565b60006133a86019836128a8565b91506133b382613372565b602082019050919050565b600060208201905081810360008301526133d78161339b565b9050919050565b600081905092915050565b60006133f482613125565b6133fe81856133de565b935061340e8185602086016128b9565b80840191505092915050565b600061342682846133e9565b915081905092915050565b7f457865637574696f6e206661696c656400000000000000000000000000000000600082015250565b60006134676010836128a8565b915061347282613431565b602082019050919050565b600060208201905081810360008301526134968161345a565b9050919050565b6000819050919050565b600067ffffffffffffffff82169050919050565b6000819050919050565b60006134e06134db6134d68461349d565b6134bb565b6134a7565b9050919050565b6134f0816134c5565b82525050565b600060208201905061350b60008301846134e7565b92915050565b7f496e76616c696420616d6f756e74000000000000000000000000000000000000600082015250565b6000613547600e836128a8565b915061355282613511565b602082019050919050565b600060208201905081810360008301526135768161353a565b9050919050565b600061358882612795565b915061359383612795565b92508282019050808211156135ab576135aa612f97565b5b92915050565b7f4e487b7100000000000000000000000000000000000000000000000000000000600052602260045260246000fd5b600060028204905060018216806135f857607f821691505b60208210810361360b5761360a6135b1565b5b50919050565b6000604082019050613626600083018561291c565b6136336020830184612522565b9392505050565b7f4e487b7100000000000000000000000000000000000000000000000000000000600052602160045260246000fd5b7f4e487b7100000000000000000000000000000000000000000000000000000000600052603260045260246000fd5b60008190508160005260206000209050919050565b60006020601f8301049050919050565b6000600883026136ed7fffffffffffffffffffffffffffffffffffffffffffffffffffffffffffffffff82613155565b6136f78683613155565b95508019841693508086168417925050509392505050565b600061372a61372561372084612795565b6134bb565b612795565b9050919050565b6000819050919050565b6137448361370f565b61375861375082613731565b8484546136bd565b825550505050565b600090565b61376d613760565b61377881848461373b565b505050565b5b8181101561379c57613791600082613765565b60018101905061377e565b5050565b601f8211156137e1576137b281613698565b6137bb846136ad565b810160208510156137ca578190505b6137de6137d6856136ad565b83018261377d565b50505b505050565b600082821c905092915050565b6000613804600019846008026137e6565b1980831691505092915050565b600061381d83836137f3565b9150826002028217905092915050565b6138368261289d565b67ffffffffffffffff81111561384f5761384e612567565b5b61385982546135e0565b6138648282856137a0565b600060209050601f8311600181146138975760008415613885578287015190505b61388f8582613811565b8655506138f7565b601f1984166138a586613698565b60005b828110156138cd578489015182556001820191506020850194506020810190506138a8565b868310156138ea57848901516138e6601f8916826137f3565b8355505b6001600288020188555050505b505050505050565b600060a0820190506139146000830188612522565b6139216020830187612522565b61392e6040830186612522565b61393b606083018561279f565b613948608083018461291c565b9695505050505050565b600060ff82169050919050565b61396881613952565b82525050565b60006080820190506139836000830187612522565b613990602083018661395f565b61399d6040830185612522565b6139aa6060830184612522565b9594505050505056fea26469706673582212209b55b3cbc488a33b0722178e0dd8aed1f024476b3de1acea8d5f7663513264bf64736f6c63430008180033",
  "linkReferences": {},
  "deployedLinkReferences": {}
}