{
  "_format": "hh-sol-artifact-1",
  "contractName": "rToken",
  "sourceName": "contracts/rToken.sol",
  "abi": [
    {
      "inputs": [],
      "stateMutability": "nonpayable",
      "type": "constructor"
    },
    {
      "inputs": [],
      "name": "AccessControlBadConfirmation",
      "type": "error"
    },
    {
      "inputs": [
        {
          "internalType": "address",
          "name": "account",
          "type": "address"
        },
        {
          "internalType": "bytes32",
          "name": "neededRole",
          "type": "bytes32"
        }
      ],
      "name": "AccessControlUnauthorizedAccount",
      "type": "error"
    },
    {
      "inputs": [
        {
          "internalType": "address",
          "name": "spender",
          "type": "address"
        },
        {
          "internalType": "uint256",
          "name": "allowance",
          "type": "uint256"
        },
        {
          "internalType": "uint256",
          "name": "needed",
          "type": "uint256"
        }
      ],
      "name": "ERC20InsufficientAllowance",
      "type": "error"
    },
    {
      "inputs": [
        {
          "internalType": "address",
          "name": "sender",
          "type": "address"
        },
        {
          "internalType": "uint256",
          "name": "balance",
          "type": "uint256"
        },
        {
          "internalType": "uint256",
          "name": "needed",
          "type": "uint256"
        }
      ],
      "name": "ERC20InsufficientBalance",
      "type": "error"
    },
    {
      "inputs": [
        {
          "internalType": "address",
          "name": "approver",
          "type": "address"
        }
      ],
      "name": "ERC20InvalidApprover",
      "type": "error"
    },
    {
      "inputs": [
        {
          "internalType": "address",
          "name": "receiver",
          "type": "address"
        }
      ],
      "name": "ERC20InvalidReceiver",
      "type": "error"
    },
    {
      "inputs": [
        {
          "internalType": "address",
          "name": "sender",
          "type": "address"
        }
      ],
      "name": "ERC20InvalidSender",
      "type": "error"
    },
    {
      "inputs": [
        {
          "internalType": "address",
          "name": "spender",
          "type": "address"
        }
      ],
      "name": "ERC20InvalidSpender",
      "type": "error"
    },
    {
      "inputs": [],
      "name": "InvalidInitialization",
      "type": "error"
    },
    {
      "inputs": [],
      "name": "NotInitializing",
      "type": "error"
    },
    {
      "anonymous": false,
      "inputs": [
        {
          "indexed": true,
          "internalType": "address",
          "name": "owner",
          "type": "address"
        },
        {
          "indexed": true,
          "internalType": "address",
          "name": "spender",
          "type": "address"
        },
        {
          "indexed": false,
          "internalType": "uint256",
          "name": "value",
          "type": "uint256"
        }
      ],
      "name": "Approval",
      "type": "event"
    },
    {
      "anonymous": false,
      "inputs": [
        {
          "indexed": false,
          "internalType": "uint64",
          "name": "version",
          "type": "uint64"
        }
      ],
      "name": "Initialized",
      "type": "event"
    },
    {
      "anonymous": false,
      "inputs": [
        {
          "indexed": true,
          "internalType": "bytes32",
          "name": "role",
          "type": "bytes32"
        },
        {
          "indexed": true,
          "internalType": "bytes32",
          "name": "previousAdminRole",
          "type": "bytes32"
        },
        {
          "indexed": true,
          "internalType": "bytes32",
          "name": "newAdminRole",
          "type": "bytes32"
        }
      ],
      "name": "RoleAdminChanged",
      "type": "event"
    },
    {
      "anonymous": false,
      "inputs": [
        {
          "indexed": true,
          "internalType": "bytes32",
          "name": "role",
          "type": "bytes32"
        },
        {
          "indexed": true,
          "internalType": "address",
          "name": "account",
          "type": "address"
        },
        {
          "indexed": true,
          "internalType": "address",
          "name": "sender",
          "type": "address"
        }
      ],
      "name": "RoleGranted",
      "type": "event"
    },
    {
      "anonymous": false,
      "inputs": [
        {
          "indexed": true,
          "internalType": "bytes32",
          "name": "role",
          "type": "bytes32"
        },
        {
          "indexed": true,
          "internalType": "address",
          "name": "account",
          "type": "address"
        },
        {
          "indexed": true,
          "internalType": "address",
          "name": "sender",
          "type": "address"
        }
      ],
      "name": "RoleRevoked",
      "type": "event"
    },
    {
      "anonymous": false,
      "inputs": [
        {
          "indexed": true,
          "internalType": "address",
          "name": "from",
          "type": "address"
        },
        {
          "indexed": true,
          "internalType": "address",
          "name": "to",
          "type": "address"
        },
        {
          "indexed": false,
          "internalType": "uint256",
          "name": "value",
          "type": "uint256"
        }
      ],
      "name": "Transfer",
      "type": "event"
    },
    {
      "inputs": [],
      "name": "BUNDLER_ROLE",
      "outputs": [
        {
          "internalType": "bytes32",
          "name": "",
          "type": "bytes32"
        }
      ],
      "stateMutability": "view",
      "type": "function"
    },
    {
      "inputs": [],
      "name": "DEFAULT_ADMIN_ROLE",
      "outputs": [
        {
          "internalType": "bytes32",
          "name": "",
          "type": "bytes32"
        }
      ],
      "stateMutability": "view",
      "type": "function"
    },
    {
      "inputs": [
        {
          "internalType": "address",
          "name": "owner",
          "type": "address"
        },
        {
          "internalType": "address",
          "name": "spender",
          "type": "address"
        }
      ],
      "name": "allowance",
      "outputs": [
        {
          "internalType": "uint256",
          "name": "",
          "type": "uint256"
        }
      ],
      "stateMutability": "view",
      "type": "function"
    },
    {
      "inputs": [
        {
          "internalType": "address",
          "name": "spender",
          "type": "address"
        },
        {
          "internalType": "uint256",
          "name": "value",
          "type": "uint256"
        }
      ],
      "name": "approve",
      "outputs": [
        {
          "internalType": "bool",
          "name": "",
          "type": "bool"
        }
      ],
      "stateMutability": "nonpayable",
      "type": "function"
    },
    {
      "inputs": [
        {
          "internalType": "address",
          "name": "account",
          "type": "address"
        }
      ],
      "name": "balanceOf",
      "outputs": [
        {
          "internalType": "uint256",
          "name": "",
          "type": "uint256"
        }
      ],
      "stateMutability": "view",
      "type": "function"
    },
    {
      "inputs": [
        {
          "internalType": "address",
          "name": "_from",
          "type": "address"
        },
        {
          "internalType": "uint256",
          "name": "_amount",
          "type": "uint256"
        }
      ],
      "name": "burnFrom",
      "outputs": [],
      "stateMutability": "nonpayable",
      "type": "function"
    },
    {
      "inputs": [],
      "name": "decimals",
      "outputs": [
        {
          "internalType": "uint8",
          "name": "",
          "type": "uint8"
        }
      ],
      "stateMutability": "view",
      "type": "function"
    },
    {
      "inputs": [
        {
          "internalType": "bytes32",
          "name": "role",
          "type": "bytes32"
        }
      ],
      "name": "getRoleAdmin",
      "outputs": [
        {
          "internalType": "bytes32",
          "name": "",
          "type": "bytes32"
        }
      ],
      "stateMutability": "view",
      "type": "function"
    },
    {
      "inputs": [
        {
          "internalType": "bytes32",
          "name": "role",
          "type": "bytes32"
        },
        {
          "internalType": "address",
          "name": "account",
          "type": "address"
        }
      ],
      "name": "grantRole",
      "outputs": [],
      "stateMutability": "nonpayable",
      "type": "function"
    },
    {
      "inputs": [
        {
          "internalType": "bytes32",
          "name": "role",
          "type": "bytes32"
        },
        {
          "internalType": "address",
          "name": "account",
          "type": "address"
        }
      ],
      "name": "hasRole",
      "outputs": [
        {
          "internalType": "bool",
          "name": "",
          "type": "bool"
        }
      ],
      "stateMutability": "view",
      "type": "function"
    },
    {
      "inputs": [
        {
          "internalType": "string",
          "name": "_tokenName",
          "type": "string"
        },
        {
          "internalType": "string",
          "name": "_symbol",
          "type": "string"
        }
      ],
      "name": "initialize",
      "outputs": [],
      "stateMutability": "nonpayable",
      "type": "function"
    },
    {
      "inputs": [
        {
          "internalType": "address",
          "name": "_to",
          "type": "address"
        },
        {
          "internalType": "uint256",
          "name": "_amount",
          "type": "uint256"
        }
      ],
      "name": "mint",
      "outputs": [],
      "stateMutability": "nonpayable",
      "type": "function"
    },
    {
      "inputs": [],
      "name": "name",
      "outputs": [
        {
          "internalType": "string",
          "name": "",
          "type": "string"
        }
      ],
      "stateMutability": "view",
      "type": "function"
    },
    {
      "inputs": [
        {
          "internalType": "bytes32",
          "name": "role",
          "type": "bytes32"
        },
        {
          "internalType": "address",
          "name": "callerConfirmation",
          "type": "address"
        }
      ],
      "name": "renounceRole",
      "outputs": [],
      "stateMutability": "nonpayable",
      "type": "function"
    },
    {
      "inputs": [
        {
          "internalType": "bytes32",
          "name": "role",
          "type": "bytes32"
        },
        {
          "internalType": "address",
          "name": "account",
          "type": "address"
        }
      ],
      "name": "revokeRole",
      "outputs": [],
      "stateMutability": "nonpayable",
      "type": "function"
    },
    {
      "inputs": [
        {
          "internalType": "bytes4",
          "name": "interfaceId",
          "type": "bytes4"
        }
      ],
      "name": "supportsInterface",
      "outputs": [
        {
          "internalType": "bool",
          "name": "",
          "type": "bool"
        }
      ],
      "stateMutability": "view",
      "type": "function"
    },
    {
      "inputs": [],
      "name": "symbol",
      "outputs": [
        {
          "internalType": "string",
          "name": "",
          "type": "string"
        }
      ],
      "stateMutability": "view",
      "type": "function"
    },
    {
      "inputs": [],
      "name": "totalSupply",
      "outputs": [
        {
          "internalType": "uint256",
          "name": "",
          "type": "uint256"
        }
      ],
      "stateMutability": "view",
      "type": "function"
    },
    {
      "inputs": [
        {
          "internalType": "address",
          "name": "to",
          "type": "address"
        },
        {
          "internalType": "uint256",
          "name": "value",
          "type": "uint256"
        }
      ],
      "name": "transfer",
      "outputs": [
        {
          "internalType": "bool",
          "name": "",
          "type": "bool"
        }
      ],
      "stateMutability": "nonpayable",
      "type": "function"
    },
    {
      "inputs": [
        {
          "internalType": "address",
          "name": "from",
          "type": "address"
        },
        {
          "internalType": "address",
          "name": "to",
          "type": "address"
        },
        {
          "internalType": "uint256",
          "name": "value",
          "type": "uint256"
        }
      ],
      "name": "transferFrom",
      "outputs": [
        {
          "internalType": "bool",
          "name": "",
          "type": "bool"
        }
      ],
      "stateMutability": "nonpayable",
      "type": "function"
    }
  ],
  "bytecode": "0x60806040523480156200001157600080fd5b50620000226200002860201b60201c565b6200019c565b60006200003a6200013260201b60201c565b90508060000160089054906101000a900460ff161562000086576040517ff92ee8a900000000000000000000000000000000000000000000000000000000815260040160405180910390fd5b67ffffffffffffffff80168160000160009054906101000a900467ffffffffffffffff1667ffffffffffffffff16146200012f5767ffffffffffffffff8160000160006101000a81548167ffffffffffffffff021916908367ffffffffffffffff1602179055507fc7f505b2f371ae2175ee4913f4499e1f2633a7b5936321eed1cdaeb6115181d267ffffffffffffffff6040516200012691906200017f565b60405180910390a15b50565b60007ff0c57e16840df040f15088dc2f81fe391c3923bec73e23a9662efc9c229c6a00905090565b600067ffffffffffffffff82169050919050565b62000179816200015a565b82525050565b60006020820190506200019660008301846200016e565b92915050565b61219580620001ac6000396000f3fe608060405234801561001057600080fd5b506004361061012c5760003560e01c80634cd88b76116100ad57806395d89b411161007157806395d89b4114610355578063a217fddf14610373578063a9059cbb14610391578063d547741f146103c1578063dd62ed3e146103dd5761012c565b80634cd88b761461029f5780636633f306146102bb57806370a08231146102d957806379cc67901461030957806391d14854146103255761012c565b8063248a9ca3116100f4578063248a9ca3146101fd5780632f2ff15d1461022d578063313ce5671461024957806336568abe1461026757806340c10f19146102835761012c565b806301ffc9a71461013157806306fdde0314610161578063095ea7b31461017f57806318160ddd146101af57806323b872dd146101cd575b600080fd5b61014b6004803603810190610146919061168e565b61040d565b60405161015891906116d6565b60405180910390f35b610169610487565b6040516101769190611781565b60405180910390f35b61019960048036038101906101949190611837565b610528565b6040516101a691906116d6565b60405180910390f35b6101b761054b565b6040516101c49190611886565b60405180910390f35b6101e760048036038101906101e291906118a1565b610563565b6040516101f491906116d6565b60405180910390f35b6102176004803603810190610212919061192a565b610592565b6040516102249190611966565b60405180910390f35b61024760048036038101906102429190611981565b6105c0565b005b6102516105e2565b60405161025e91906119dd565b60405180910390f35b610281600480360381019061027c9190611981565b6105eb565b005b61029d60048036038101906102989190611837565b610666565b005b6102b960048036038101906102b49190611b2d565b61069f565b005b6102c36108a1565b6040516102d09190611966565b60405180910390f35b6102f360048036038101906102ee9190611ba5565b6108c5565b6040516103009190611886565b60405180910390f35b610323600480360381019061031e9190611837565b61091c565b005b61033f600480360381019061033a9190611981565b610955565b60405161034c91906116d6565b60405180910390f35b61035d6109ce565b60405161036a9190611781565b60405180910390f35b61037b610a6f565b6040516103889190611966565b60405180910390f35b6103ab60048036038101906103a69190611837565b610a76565b6040516103b891906116d6565b60405180910390f35b6103db60048036038101906103d69190611981565b610a99565b005b6103f760048036038101906103f29190611bd2565b610abb565b6040516104049190611886565b60405180910390f35b60007f7965db0b000000000000000000000000000000000000000000000000000000007bffffffffffffffffffffffffffffffffffffffffffffffffffffffff1916827bffffffffffffffffffffffffffffffffffffffffffffffffffffffff19161480610480575061047f82610b50565b5b9050919050565b60606000610493610bba565b90508060030180546104a490611c41565b80601f01602080910402602001604051908101604052809291908181526020018280546104d090611c41565b801561051d5780601f106104f25761010080835404028352916020019161051d565b820191906000526020600020905b81548152906001019060200180831161050057829003601f168201915b505050505091505090565b600080610533610be2565b9050610540818585610bea565b600191505092915050565b600080610556610bba565b9050806002015491505090565b60008061056e610be2565b905061057b858285610bfc565b610586858585610c90565b60019150509392505050565b60008061059d610d84565b905080600001600084815260200190815260200160002060010154915050919050565b6105c982610592565b6105d281610dac565b6105dc8383610dc0565b50505050565b60006012905090565b6105f3610be2565b73ffffffffffffffffffffffffffffffffffffffff168173ffffffffffffffffffffffffffffffffffffffff1614610657576040517f6697b23200000000000000000000000000000000000000000000000000000000815260040160405180910390fd5b6106618282610ec1565b505050565b7fc1f2daae1d506fbe1e26437b3f3474a3b440b412430e29650f6cdc7a233b8b8561069081610dac565b61069a8383610fc3565b505050565b60006106a9611045565b905060008160000160089054906101000a900460ff1615905060008260000160009054906101000a900467ffffffffffffffff1690506000808267ffffffffffffffff161480156106f75750825b9050600060018367ffffffffffffffff1614801561072c575060003073ffffffffffffffffffffffffffffffffffffffff163b145b90508115801561073a575080155b15610771576040517ff92ee8a900000000000000000000000000000000000000000000000000000000815260040160405180910390fd5b60018560000160006101000a81548167ffffffffffffffff021916908367ffffffffffffffff16021790555083156107c15760018560000160086101000a81548160ff0219169083151502179055505b610809876040516020016107d59190611cfa565b604051602081830303815290604052876040516020016107f59190611d68565b60405160208183030381529060405261106d565b610811611083565b61083b7fc1f2daae1d506fbe1e26437b3f3474a3b440b412430e29650f6cdc7a233b8b8533610dc0565b5083156108985760008560000160086101000a81548160ff0219169083151502179055507fc7f505b2f371ae2175ee4913f4499e1f2633a7b5936321eed1cdaeb6115181d2600160405161088f9190611de3565b60405180910390a15b50505050505050565b7fc1f2daae1d506fbe1e26437b3f3474a3b440b412430e29650f6cdc7a233b8b8581565b6000806108d0610bba565b90508060000160008473ffffffffffffffffffffffffffffffffffffffff1673ffffffffffffffffffffffffffffffffffffffff16815260200190815260200160002054915050919050565b7fc1f2daae1d506fbe1e26437b3f3474a3b440b412430e29650f6cdc7a233b8b8561094681610dac565b610950838361108d565b505050565b600080610960610d84565b905080600001600085815260200190815260200160002060000160008473ffffffffffffffffffffffffffffffffffffffff1673ffffffffffffffffffffffffffffffffffffffff16815260200190815260200160002060009054906101000a900460ff1691505092915050565b606060006109da610bba565b90508060040180546109eb90611c41565b80601f0160208091040260200160405190810160405280929190818152602001828054610a1790611c41565b8015610a645780601f10610a3957610100808354040283529160200191610a64565b820191906000526020600020905b815481529060010190602001808311610a4757829003601f168201915b505050505091505090565b6000801b81565b600080610a81610be2565b9050610a8e818585610c90565b600191505092915050565b610aa282610592565b610aab81610dac565b610ab58383610ec1565b50505050565b600080610ac6610bba565b90508060010160008573ffffffffffffffffffffffffffffffffffffffff1673ffffffffffffffffffffffffffffffffffffffff16815260200190815260200160002060008473ffffffffffffffffffffffffffffffffffffffff1673ffffffffffffffffffffffffffffffffffffffff1681526020019081526020016000205491505092915050565b60007f01ffc9a7000000000000000000000000000000000000000000000000000000007bffffffffffffffffffffffffffffffffffffffffffffffffffffffff1916827bffffffffffffffffffffffffffffffffffffffffffffffffffffffff1916149050919050565b60007f52c63247e1f47db19d5ce0460030c497f067ca4cebf71ba98eeadabe20bace00905090565b600033905090565b610bf7838383600161110f565b505050565b6000610c088484610abb565b90507fffffffffffffffffffffffffffffffffffffffffffffffffffffffffffffffff8114610c8a5781811015610c7a578281836040517ffb8f41b2000000000000000000000000000000000000000000000000000000008152600401610c7193929190611e0d565b60405180910390fd5b610c898484848403600061110f565b5b50505050565b600073ffffffffffffffffffffffffffffffffffffffff168373ffffffffffffffffffffffffffffffffffffffff1603610d025760006040517f96c6fd1e000000000000000000000000000000000000000000000000000000008152600401610cf99190611e44565b60405180910390fd5b600073ffffffffffffffffffffffffffffffffffffffff168273ffffffffffffffffffffffffffffffffffffffff1603610d745760006040517fec442f05000000000000000000000000000000000000000000000000000000008152600401610d6b9190611e44565b60405180910390fd5b610d7f8383836112f5565b505050565b60007f02dd7bc7dec4dceedda775e58dd541e08a116c6c53815c0bd028192f7b626800905090565b610dbd81610db8610be2565b611534565b50565b600080610dcb610d84565b9050610dd78484610955565b610eb557600181600001600086815260200190815260200160002060000160008573ffffffffffffffffffffffffffffffffffffffff1673ffffffffffffffffffffffffffffffffffffffff16815260200190815260200160002060006101000a81548160ff021916908315150217905550610e51610be2565b73ffffffffffffffffffffffffffffffffffffffff168373ffffffffffffffffffffffffffffffffffffffff16857f2f8788117e7eff1d82e926ec794901d17c78024a50270940304540a733656f0d60405160405180910390a46001915050610ebb565b60009150505b92915050565b600080610ecc610d84565b9050610ed88484610955565b15610fb757600081600001600086815260200190815260200160002060000160008573ffffffffffffffffffffffffffffffffffffffff1673ffffffffffffffffffffffffffffffffffffffff16815260200190815260200160002060006101000a81548160ff021916908315150217905550610f53610be2565b73ffffffffffffffffffffffffffffffffffffffff168373ffffffffffffffffffffffffffffffffffffffff16857ff6391f5c32d9c69d2a47ea670b442974b53935d1edc7fd64eb21e047a839171b60405160405180910390a46001915050610fbd565b60009150505b92915050565b600073ffffffffffffffffffffffffffffffffffffffff168273ffffffffffffffffffffffffffffffffffffffff16036110355760006040517fec442f0500000000000000000000000000000000000000000000000000000000815260040161102c9190611e44565b60405180910390fd5b611041600083836112f5565b5050565b60007ff0c57e16840df040f15088dc2f81fe391c3923bec73e23a9662efc9c229c6a00905090565b611075611585565b61107f82826115c5565b5050565b61108b611585565b565b600073ffffffffffffffffffffffffffffffffffffffff168273ffffffffffffffffffffffffffffffffffffffff16036110ff5760006040517f96c6fd1e0000000000000000000000000000000000000000000000000000000081526004016110f69190611e44565b60405180910390fd5b61110b826000836112f5565b5050565b6000611119610bba565b9050600073ffffffffffffffffffffffffffffffffffffffff168573ffffffffffffffffffffffffffffffffffffffff160361118d5760006040517fe602df050000000000000000000000000000000000000000000000000000000081526004016111849190611e44565b60405180910390fd5b600073ffffffffffffffffffffffffffffffffffffffff168473ffffffffffffffffffffffffffffffffffffffff16036111ff5760006040517f94280d620000000000000000000000000000000000000000000000000000000081526004016111f69190611e44565b60405180910390fd5b828160010160008773ffffffffffffffffffffffffffffffffffffffff1673ffffffffffffffffffffffffffffffffffffffff16815260200190815260200160002060008673ffffffffffffffffffffffffffffffffffffffff1673ffffffffffffffffffffffffffffffffffffffff1681526020019081526020016000208190555081156112ee578373ffffffffffffffffffffffffffffffffffffffff168573ffffffffffffffffffffffffffffffffffffffff167f8c5be1e5ebec7d5bd14f71427d1e84f3dd0314c0f7b2291e5b200ac8c7c3b925856040516112e59190611886565b60405180910390a35b5050505050565b60006112ff610bba565b9050600073ffffffffffffffffffffffffffffffffffffffff168473ffffffffffffffffffffffffffffffffffffffff160361135557818160020160008282546113499190611e8e565b9250508190555061142e565b60008160000160008673ffffffffffffffffffffffffffffffffffffffff1673ffffffffffffffffffffffffffffffffffffffff168152602001908152602001600020549050828110156113e4578481846040517fe450d38c0000000000000000000000000000000000000000000000000000000081526004016113db93929190611e0d565b60405180910390fd5b8281038260000160008773ffffffffffffffffffffffffffffffffffffffff1673ffffffffffffffffffffffffffffffffffffffff16815260200190815260200160002081905550505b600073ffffffffffffffffffffffffffffffffffffffff168373ffffffffffffffffffffffffffffffffffffffff1603611479578181600201600082825403925050819055506114c9565b818160000160008573ffffffffffffffffffffffffffffffffffffffff1673ffffffffffffffffffffffffffffffffffffffff168152602001908152602001600020600082825401925050819055505b8273ffffffffffffffffffffffffffffffffffffffff168473ffffffffffffffffffffffffffffffffffffffff167fddf252ad1be2c89b69c2b068fc378daa952ba7f163c4a11628f55a4df523b3ef846040516115269190611886565b60405180910390a350505050565b61153e8282610955565b6115815780826040517fe2517d3f000000000000000000000000000000000000000000000000000000008152600401611578929190611ec2565b60405180910390fd5b5050565b61158d611602565b6115c3576040517fd7e6bcf800000000000000000000000000000000000000000000000000000000815260040160405180910390fd5b565b6115cd611585565b60006115d7610bba565b9050828160030190816115ea919061208d565b50818160040190816115fc919061208d565b50505050565b600061160c611045565b60000160089054906101000a900460ff16905090565b6000604051905090565b600080fd5b600080fd5b60007fffffffff0000000000000000000000000000000000000000000000000000000082169050919050565b61166b81611636565b811461167657600080fd5b50565b60008135905061168881611662565b92915050565b6000602082840312156116a4576116a361162c565b5b60006116b284828501611679565b91505092915050565b60008115159050919050565b6116d0816116bb565b82525050565b60006020820190506116eb60008301846116c7565b92915050565b600081519050919050565b600082825260208201905092915050565b60005b8381101561172b578082015181840152602081019050611710565b60008484015250505050565b6000601f19601f8301169050919050565b6000611753826116f1565b61175d81856116fc565b935061176d81856020860161170d565b61177681611737565b840191505092915050565b6000602082019050818103600083015261179b8184611748565b905092915050565b600073ffffffffffffffffffffffffffffffffffffffff82169050919050565b60006117ce826117a3565b9050919050565b6117de816117c3565b81146117e957600080fd5b50565b6000813590506117fb816117d5565b92915050565b6000819050919050565b61181481611801565b811461181f57600080fd5b50565b6000813590506118318161180b565b92915050565b6000806040838503121561184e5761184d61162c565b5b600061185c858286016117ec565b925050602061186d85828601611822565b9150509250929050565b61188081611801565b82525050565b600060208201905061189b6000830184611877565b92915050565b6000806000606084860312156118ba576118b961162c565b5b60006118c8868287016117ec565b93505060206118d9868287016117ec565b92505060406118ea86828701611822565b9150509250925092565b6000819050919050565b611907816118f4565b811461191257600080fd5b50565b600081359050611924816118fe565b92915050565b6000602082840312156119405761193f61162c565b5b600061194e84828501611915565b91505092915050565b611960816118f4565b82525050565b600060208201905061197b6000830184611957565b92915050565b600080604083850312156119985761199761162c565b5b60006119a685828601611915565b92505060206119b7858286016117ec565b9150509250929050565b600060ff82169050919050565b6119d7816119c1565b82525050565b60006020820190506119f260008301846119ce565b92915050565b600080fd5b600080fd5b7f4e487b7100000000000000000000000000000000000000000000000000000000600052604160045260246000fd5b611a3a82611737565b810181811067ffffffffffffffff82111715611a5957611a58611a02565b5b80604052505050565b6000611a6c611622565b9050611a788282611a31565b919050565b600067ffffffffffffffff821115611a9857611a97611a02565b5b611aa182611737565b9050602081019050919050565b82818337600083830152505050565b6000611ad0611acb84611a7d565b611a62565b905082815260208101848484011115611aec57611aeb6119fd565b5b611af7848285611aae565b509392505050565b600082601f830112611b1457611b136119f8565b5b8135611b24848260208601611abd565b91505092915050565b60008060408385031215611b4457611b4361162c565b5b600083013567ffffffffffffffff811115611b6257611b61611631565b5b611b6e85828601611aff565b925050602083013567ffffffffffffffff811115611b8f57611b8e611631565b5b611b9b85828601611aff565b9150509250929050565b600060208284031215611bbb57611bba61162c565b5b6000611bc9848285016117ec565b91505092915050565b60008060408385031215611be957611be861162c565b5b6000611bf7858286016117ec565b9250506020611c08858286016117ec565b9150509250929050565b7f4e487b7100000000000000000000000000000000000000000000000000000000600052602260045260246000fd5b60006002820490506001821680611c5957607f821691505b602082108103611c6c57611c6b611c12565b5b50919050565b600081905092915050565b7f72546f6b656e2d00000000000000000000000000000000000000000000000000600082015250565b6000611cb3600783611c72565b9150611cbe82611c7d565b600782019050919050565b6000611cd4826116f1565b611cde8185611c72565b9350611cee81856020860161170d565b80840191505092915050565b6000611d0582611ca6565b9150611d118284611cc9565b915081905092915050565b7f72542d0000000000000000000000000000000000000000000000000000000000600082015250565b6000611d52600383611c72565b9150611d5d82611d1c565b600382019050919050565b6000611d7382611d45565b9150611d7f8284611cc9565b915081905092915050565b6000819050919050565b600067ffffffffffffffff82169050919050565b6000819050919050565b6000611dcd611dc8611dc384611d8a565b611da8565b611d94565b9050919050565b611ddd81611db2565b82525050565b6000602082019050611df86000830184611dd4565b92915050565b611e07816117c3565b82525050565b6000606082019050611e226000830186611dfe565b611e2f6020830185611877565b611e3c6040830184611877565b949350505050565b6000602082019050611e596000830184611dfe565b92915050565b7f4e487b7100000000000000000000000000000000000000000000000000000000600052601160045260246000fd5b6000611e9982611801565b9150611ea483611801565b9250828201905080821115611ebc57611ebb611e5f565b5b92915050565b6000604082019050611ed76000830185611dfe565b611ee46020830184611957565b9392505050565b60008190508160005260206000209050919050565b60006020601f8301049050919050565b600082821b905092915050565b600060088302611f4d7fffffffffffffffffffffffffffffffffffffffffffffffffffffffffffffffff82611f10565b611f578683611f10565b95508019841693508086168417925050509392505050565b6000611f8a611f85611f8084611801565b611da8565b611801565b9050919050565b6000819050919050565b611fa483611f6f565b611fb8611fb082611f91565b848454611f1d565b825550505050565b600090565b611fcd611fc0565b611fd8818484611f9b565b505050565b5b81811015611ffc57611ff1600082611fc5565b600181019050611fde565b5050565b601f8211156120415761201281611eeb565b61201b84611f00565b8101602085101561202a578190505b61203e61203685611f00565b830182611fdd565b50505b505050565b600082821c905092915050565b600061206460001984600802612046565b1980831691505092915050565b600061207d8383612053565b9150826002028217905092915050565b612096826116f1565b67ffffffffffffffff8111156120af576120ae611a02565b5b6120b98254611c41565b6120c4828285612000565b600060209050601f8311600181146120f757600084156120e5578287015190505b6120ef8582612071565b865550612157565b601f19841661210586611eeb565b60005b8281101561212d57848901518255600182019150602085019450602081019050612108565b8683101561214a5784890151612146601f891682612053565b8355505b6001600288020188555050505b50505050505056fea2646970667358221220d559929352aba06ca755d53890f89fe77be7096545c32f8fa6216af61c4dfb7564736f6c63430008180033",
  "linkReferences": {},
  "deployedLinkReferences": {}
}